:020000040000FA
:0600000043EF0EF01200B8
:020006001200E6
:0600080014EF00F01200ED
:02000E000200EE
:10001000051D0000ED00000013000000D81C0000CA
:08002000C00000002D000000EB
:08002800DACFE4FFE2CFDAFFBA
:10003000E9CFE4FFEACFE4FFF6CFE4FFF7CFE4FF38
:10004000F5CFE4FFF3CFE4FFF4CFE4FFFACFE4FF12
:1000500000EE00F0140EE80403E3EECFE4FFFBD75C
:1000600000EE14F0080EE80403E3EECFE4FFFBD744
:10007000E6529EAA1BD0AB50020B03E1AB50040B1F
:1000800003E0AB9E0000AB8EB6EC08F00001C16F40
:100090000001C051EA6A800FE96E000EEA22C1C079
:1000A000EFFF0001C0293F0B0001C06FE55200EED9
:1000B0001BF0080EE80403E3E5CFEDFFFBD700EEED
:1000C00013F0140EE80403E3E5CFEDFFFBD7E5CF13
:1000D000FAFFE5CFF4FFE5CFF3FFE5CFF5FFE5CF7E
:1000E000F7FFE5CFF6FFE5CFEAFFE5CFE9FFE5CF84
:1000F000DAFF1100D9CFE6FFE1CFD9FF0C0EE126E0
:10010000DF6AD950010FE96EDACFEAFF480EEE6ED2
:10011000690EEE6E200EEE6E4B0EEE6E690EEE6EFA
:100120006D0EEE6EEE6E690EEE6E650EEE6E210ECB
:10013000EE6EEE6A5FDAE66A73EC05F0E5524008AF
:1001400031E0640EE66EE66AAEEC04F0E552E5528C
:10015000E2C0E6FFE3C0E6FF010EE66EFDEC05F04F
:10016000E552E552E552640EE66EE66AAEEC04F046
:10017000E552E552E4C0E6FFE5C0E6FF030EE66E99
:10018000FDEC05F0E552E552E552640EE66EE66AD6
:10019000E5DBE552E552400EE66EE66A86EC05F0D8
:1001A000E552E552010EE66EA2EC05F0E552F3CF02
:1001B000E2F0F4CFE3F0640EE66EE66ACFDBE552E0
:1001C000E552030EE66EA2EC05F0E552F3CFE4F043
:1001D000F4CFE5F0640EE66EE66AC0DBE552E55268
:1001E0000001000ED880E255000EE3550EE2000E2D
:1001F000D880E455000EE55508E2E2C0E6F0E3C021
:10020000E7F0E4C0E8F0E5C0E9F0010EE66E49EC85
:100210000AF0E552D950010FE66E000EDA20E66EC4
:10022000E66AE66AC6EC0AF0E552E552E552E552A6
:10023000E80EE66E030EE66E91DBE552E552010E26
:10024000E66E49EC0AF0E552C20EE66E000EE66E6E
:10025000E66AE66AC6EC0AF0E552E552E552E55276
:10026000D20EE66E000EE66EE66A010EE66EC6EC93
:100270000AF0E552E552E552E5520F0EE66E49EC02
:100280000AF0E552E4C0E6FFE5C0E6FFC0D9E5525A
:10029000E552E2C0E6FFE3C0E6FFA6DAE552E5522A
:1002A000E66ACBEC0CF0E5520C0EE66E49EC0AF077
:1002B000E55234EC0CF0DF6EDF500B0A01E11DD18A
:1002C000020A01E1D3D00E0A01E1C0D0020A53E0D4
:1002D000060A01E114D1020A01E011D10001EA513C
:1002E00001E00DD10001ED0528E1080E0001E42533
:1002F000146E070EE521156E166AC80E0C6EAF0E51
:100300000D6E0E6A14C007F015C008F016C009F093
:1003100035EC0DF003C014F004C015F005C016F064
:1003200003C0E4F004C0E5F003C0E8F004C0E9F065
:1003300003C0E6FF04C0E6FFC1D01E0E0001E225A7
:10034000E26F000EE321E36F760E0D6E020E0E6E6D
:10035000E2C008F0E3C009F00DEC0EF004C0E2F0DA
:1003600005C0E3F004C0E6F005C0E7F004C0E6FF16
:1003700005C0E6FFBCD00001EA513CE1000ED88088
:10038000E455000EE55501E3BAD0000ED880E255E1
:10039000000EE35501E3B3D0010EEA6FE66ECBEC3D
:1003A0000CF0E5520C0EE66E49EC0AF0E5522C0E0C
:1003B000E66E010EE66ED2DAE552E552E2C0E6FFE5
:1003C000E3C0E6FF010EE66EFDEC05F0E552E552F6
:1003D000E552E4C0E6FFE5C0E6FF030EE66EFDEC85
:1003E00005F0E552E552E5522C0EE66E010EE66E82
:1003F000B5DA29D0EA5101E182D0EA6BE2C0E6F039
:10040000E3C0E7F0E4C0E8F0E5C0E9F0E4C0E6FFEF
:10041000E5C0E6FFFCD8E552E552E2C0E6FFE3C0E6
:10042000E6FFE2D9E552E552E66ACBEC0CF0E55284
:100430000F0EE66E49EC0AF0E5520F0EE66E010E65
:10044000E66E97EC0AF0E552E55259D00001ED0551
:1004500004E10F0EE66EE66A04D00F0EE66E010EA2
:10046000E66E97EC0AF0E552E55247D00001EA51FA
:1004700046E10001ED0524E10001080EE45F070EEE
:10048000E55BE4C014F0E5C015F0166A1634000E02
:10049000161807E6D880C80E1454AF0E1554000E77
:1004A000165404E2C00EE46FA80EE56FE4C0E8F055
:1004B000E5C0E9F0E4C0E6FFE5C0E6FFA8D818D043
:1004C00000011E0EE25F000EE35B760ED880E2555F
:1004D000020EE35504E2580EE26F020EE36FE2C033
:1004E000E6F0E3C0E7F0E2C0E6FFE3C0E6FF7CD958
:1004F000E552E552FAEC0CF002D0D9EC0CF0EBC06E
:1005000014F0ECC015F00A0E0D6E0E6AEBC008F088
:10051000ECC009F00DEC0EF004C014F005C015F0AD
:100520000450051053E10001EA5150E0EA051CE1D6
:10053000E607000EE75BE651E71106E0760ED8808D
:10054000E655020EE7550AE2020EEA6FE2C0E6F057
:10055000E3C0E7F0E66ACBEC0CF0E552E6C0E6FF5C
:10056000E7C0E6FF41D92BD0020EEA5D2AE1E80799
:10057000000EE95BD880E855000EE95511E2E8C0AD
:1005800014F0E9C015F0166A1634000E161807E6C6
:10059000D880C80E1454AF0E1554000E16540AE23B
:1005A000010EEA6FE4C0E8F0E5C0E9F0E66ECBECDE
:1005B0000CF0E552E8C0E6FFE9C0E6FF28D8E552B6
:1005C00004D0EA6BE66ACBEC0CF0E5520001EA518C
:1005D00004E1E66ABDEC0CF0E5520001EA5101E0ED
:1005E0008178EB2B000EEC23640EE66EE66AB6D93A
:1005F000E5525ED6C186C184C182C180926893688B
:1006000094685FEC0EF0E9EC09F023EF0CF0D9CF21
:10061000E6FFE1CFD9FF040EE126DF6A010EDB6AB7
:10062000020EDB6A030EDB6AFD0EDBCF14F0FE0E5A
:10063000DBCF15F0166A1634000E161807E6D880C0
:10064000C00E1454A80E1554000E165401E2C2D068
:10065000FD0EDBCF14F0FE0EDBCF15F0166AA00EF8
:100660000C6E8C0E0D6E0E6A14C007F015C008F0EB
:1006700016C009F035EC0DF007C014F008C015F0F5
:1006800009C016F0300E1426000E15221622145042
:10069000DF6EFD0EDBCF14F0FE0EDBCF15F0166A19
:1006A000A00E0C6E8C0E0D6E0E6A14C007F015C0F5
:1006B00008F016C009F035EC0DF003C014F004C0CA
:1006C00015F005C016F0100E0C6E0E0E0D6E0E6AB3
:1006D00003C007F004C008F005C009F035EC0DF0C8
:1006E00007C014F008C015F009C016F0300E14262B
:1006F000000E15221622010E14C0DBFFFD0EDBCF0B
:1007000014F0FE0EDBCF15F0100E0D6E0E0E0E6EF9
:1007100014C008F015C009F00DEC0EF004C014F080
:1007200005C015F0580E0D6E020E0E6E04C008F0D6
:1007300005C009F00DEC0EF008C014F009C015F06A
:10074000300E1426000E1522020E14C0DBFFFD0E23
:10075000DBCF14F0FE0EDBCF15F0580E0D6E020E3F
:100760000E6E14C008F015C009F00DEC0EF004C0B8
:1007700014F005C015F03C0E0D6E0E6A04C008F0B2
:1007800005C009F00DEC0EF008C014F009C015F01A
:10079000300E1426000E1522030E14C0DBFFDFCF2F
:1007A000DCF0010EDBCFDDF000013A0EDE6F020E51
:1007B000DBCFDFF0030EDBCFE0F0D20EE66E000EF3
:1007C000E66EE66A010EE66EC6EC0AF0E552E55208
:1007D000E552E552040EE15C02E2E16AE552E16EA7
:1007E000E552E7CFD9FF1200D9CFE6FFE1CFD9FF1D
:1007F000040EE126DF6A010EDB6A020EDB6A030EDD
:10080000DB6AD950FD0FE96EFF0EDA20EA6E580E52
:10081000D880EE54020EED5401E296D0FD0EDBCFEF
:1008200014F0FE0EDBCF15F0580E0D6E020E0E6E9C
:1008300014C008F015C009F00DEC0EF0300E0824BD
:10084000DF6EFD0EDBCF14F0FE0EDBCF15F0580E81
:100850000D6E020E0E6E14C008F015C009F00DECFE
:100860000EF004C014F005C015F03C0E0D6E0E6ABB
:1008700004C008F005C009F00DEC0EF008C014F03B
:1008800009C015F0300E1426000E1522010E14C0FA
:10089000DBFFFD0EDBCF14F0FE0EDBCF15F03C0EC0
:1008A0000D6E0E6A14C008F015C009F00DEC0EF0C4
:1008B00004C014F005C015F00A0E0D6E0E6A04C0D7
:1008C00008F005C009F00DEC0EF008C014F009C0E6
:1008D00015F0300E1426000E1522020E14C0DBFF98
:1008E000FD0EDBCF14F0FE0EDBCF15F00A0E0D6E01
:1008F0000E6A14C008F015C009F00DEC0EF004C02B
:1009000014F005C015F0300E1426000E1522030E4B
:1009100014C0DBFFDFCFCCF0010EDBCFCDF0000148
:100920003A0ECE6F020EDBCFCFF0030EDBCFD0F04E
:10093000C20EE66E000EE66EE66AE66AC6EC0AF0E5
:10094000E552E552E552E552040EE15C02E2E16A4D
:10095000E552E16EE552E7CFD9FF1200D9CFE6FFAD
:10096000E1CFD9FF020EE126DE6ADD6ADE6ADD6ACA
:10097000DECF14F0DDCF15F0FD0EDBCF16F0FE0E4E
:10098000DBCF17F01650145C175015580AE2050E0D
:10099000E66E23EC0EF0E552DF2A010EE9E3DB2AD6
:1009A000E7D7020EE15C02E2E16AE552E16EE55250
:1009B000E7CFD9FF1200D9CFE6FFE1CFD9FF020E72
:1009C000E126DE6ADD6ADE6ADD6ADECF14F0DDCFA5
:1009D00015F0FD0EDBCF16F0FE0EDBCF17F0165034
:1009E000145C175015580AE20000000000000000D7
:1009F0000000DF2A010E01E3DB2AE7D7020EE15CEB
:100A000002E2E16AE552E16EE552E7CFD9FF12005A
:100A1000D9CFE6FFE1CFD9FF040EE126FE0EDB2899
:100A2000E66E61D8E552DF6EFE0EDBCFE6FF5BD8E7
:100A3000E552E76E010EE7CFDBFFDB50100DF35000
:100A4000E66ED950020FE96EDACFEAFFE552E750C1
:100A5000EE6EED6ADF50146E156AD950020FE96E22
:100A6000DACFEAFF1450EE121550ED12020EDBCF72
:100A700014F0030EDBCF15F014C0F3FF15C0F4FF24
:100A8000040EE15C02E2E16AE552E16EE552E7CF75
:100A9000D9FF1200D9CFE6FFE1CFD9FFE652DF6AD6
:100AA000FC0EDB50DF6EDFCFE6FFFE0EDB28E66ECE
:100AB0002DD8E552E552FC0EDBCF14F0FD0EDBCF56
:100AC00015F015C014F0156A1450DF6EDFCFE6FF85
:100AD000FE0EDBCFE6FF1AD8E552E552E552E552AD
:100AE000E7CFD9FF1200D9CFE6FFE1CFD9FFF29EC1
:100AF000FE0EDB50A96EA69EA69CA680A6B0FED7D1
:100B0000F28EA850E552E7CFD9FF1200D9CFE6FF09
:100B1000E1CFD9FFA696FE0EDB50A96EFD0EDB508D
:100B2000A86EA69EA69CA684F29E550EA76EAA0E3F
:100B3000A76EA682A6B2FED7F28EA694E552E7CFA4
:100B4000D9FF1200D9CFE6FFE1CFD9FF040EE1268D
:100B5000DF6A010EDB6A020EDB6A030EDB6AFE0E41
:100B6000DBCFE6FFC0DFE552E76E010EE7CFDBFF2C
:100B7000FE0EDB28E66EB7DFE552DF6E010EDB50BE
:100B8000E66ED950020FE96EDACFEAFFE552E75080
:100B9000EE6EED6A020EDBCF14F0030EDBCF15F024
:100BA00014C015F0146A020E14C0DBFF030E15C04A
:100BB000DBFFDF50E76E020EDBCF14F0030EDBCF5E
:100BC00015F0E7501412020E14C0DBFF030E15C01F
:100BD000DBFF020EDBCF14F0030EDBCF15F014C0E9
:100BE000F3FF15C0F4FF040EE15C02E2E16AE55296
:100BF000E16EE552E7CFD9FF1200D9CFE6FFE1CF92
:100C0000D9FF020EE126DF6A010EDB6AFC0EDB5023
:100C1000DF6EFD0EDBCF15F015C014F0156A010E66
:100C200014C0DBFFDBCFE6FFFE0EDBCFE6FF6EDF9F
:100C3000E552E552DFCFE6FFFE0EDB28E66E66DF0B
:100C4000E552E552020EE15C02E2E16AE552E16E34
:100C5000E552E7CFD9FF1200D9CFE6FFE1CFD9FFA8
:100C6000E652DF6A0F0EE76EFD0EDBCF14F0E750A1
:100C70001416156A030EE76EFB0EDBCFE9FFFC0EC0
:100C8000DBCFEAFFE750E926000EEA2214C0EFFFAF
:100C9000F00EE76EFD0EDBCF14F0FE0EE7501416DB
:100CA000156A040E0F0B05E0D89015321432E806D1
:100CB000FBE1020EE76EFB0EDBCFE9FFFC0EDBCFA4
:100CC000EAFFE750E926000EEA2214C0EFFFFD0E0E
:100CD000DBCF14F0FE0EDBCF15F0000E14160F0E56
:100CE0001516010EE76EFB0EDBCFE9FFFC0EDBCF26
:100CF000EAFFE750E926000EEA2215C0EFFFFD0EDD
:100D0000DBCF14F0FE0EDBCF15F0000E1416F00E44
:100D100015160C0E0F0B05E0D89015321432E806AC
:100D2000FBE1FB0EDBCFE9FFFC0EDBCFEAFF14C0DB
:100D3000EFFFDF6ADFCF14F0040EE76E1418E8AEA1
:100D400002D0E73402D0E750145C53E2DFCF15F055
:100D5000166A15BE1668FB0EDB501524E96EFC0EF4
:100D6000DB501620EA6EEFCF14F0090EE76E141870
:100D7000E8AE02D0143403D0E750D880145417E3FF
:100D8000DFCF16F0176A16BE1768FB0EDB5016246D
:100D9000E96EFC0EDB501720EA6EEF50300FE66E66
:100DA000DFCF14F0156A14AE17D0156815D0DFCF59
:100DB00016F0176A16BE1768FB0EDB501624E96E94
:100DC000FC0EDB501720EA6EEF50370FE66EDFCFD8
:100DD00014F0156A14BE1568FB0EDB501424E96E7E
:100DE000FC0EDB501520EA6EE552E750EF6EDF2A6D
:100DF000A1D7E552E552E7CFD9FF1200D9CFE6FFE0
:100E0000E1CFD9FF0B0EE126DF6A010EDB6A020E8D
:100E1000DB6A030EDB6A040EDB6A050EDB6A060E74
:100E2000DB6A070EDB6A080EDB6A090EDB6A0A0E54
:100E3000DB6ADF6ADFCF14F0040EE76E1418E8AE49
:100E400002D0E73402D0E750145C01E3BED0DFCF1C
:100E500015F0166A15BE1668FD0EDB501524E96EF6
:100E6000FE0EDB501620EA6EEF50C90F146EF90E1D
:100E7000E76E1418E8AE02D0E73402D0E750145CF5
:100E800043E3DFCF18F0196A18BE1968FD0EDB5076
:100E90001824E96EFE0EDB501920EA6EEF50C90FE0
:100EA000176E020EE76E1718E8AE02D0173403D0A3
:100EB000E750D880175428E3DFCF18F0196A18BE1E
:100EC0001968FD0EDB501824E96EFE0EDB50192068
:100ED000EA6EEF50D00FE66ED950010F146EDACFE4
:100EE00015F0DFCF16F0176A16BE1768D8901636C1
:100EF000173614501624E96E15501720EA6EE55285
:100F0000E750EE6EED6A5FD0DFCF15F0166A15BEC2
:100F10001668FD0EDB501524E96EFE0EDB50162020
:100F2000EA6EEF50C90F146E0A0EE76E1418E8AEA1
:100F300002D0E73402D0E750145C45E3DFCF18F06D
:100F4000196A18BE1968FD0EDB501824E96EFE0EF2
:100F5000DB501920EA6EEF50C90F176E0F0EE76EC7
:100F60001718E8AE02D0173403D0E750D8801754D2
:100F70002AE3DFCF1AF01B6A1ABE1B68FD0EDB5096
:100F80001A24E96EFE0EDB501B20EA6EEF50C90FEB
:100F9000186E196A18BE1968D950010F146EDACF8D
:100FA00015F0DFCF16F0176A16BE1768D890163600
:100FB000173614501624E96E15501720EA6E18C023
:100FC000EEFF19C0EDFFDF2A35D7010EDBCF1AF097
:100FD000020EDBCF1BF00C0ED8901A361B36E8063B
:100FE000FBE1086A010E096E030EDBCF0DF0040E63
:100FF000DBCF0EF062EC0DF01A500624186E1B5079
:101000000720196E100E086E096A050EDBCF0DF071
:10101000060EDBCF0EF062EC0DF018500624166EB3
:1010200019500720176E070EDB501624146E080E99
:10103000DB501720156E090E14C0DBFF0A0E15C019
:10104000DBFF090EDBCF14F00A0EDBCF15F014C066
:10105000F3FF15C0F4FF0B0EE15C02E2E16AE5521A
:10106000E16EE552E7CFD9FF1200D9CFE6FFE1CF1D
:10107000D9FF0D0EE126020EDE6EDD6A0C0EDB6A74
:10108000010EE76EFD0EDBCFE9FFFE0EDBCFEAFFC0
:10109000E750E926000EEA220C0EEFCFDBFFFD0E33
:1010A000DBCF14F0FE0EDBCF15F0DE501424E96E1A
:1010B000DD501520EA6EEF502A0827E0DECF16F04B
:1010C000DDCF17F0D890175004E6400E165C000EE6
:1010D00017581BE20C0EDBCFE6FFFD0EDBCF14F042
:1010E000FE0EDBCF15F0DE501424E96EDD50152026
:1010F000EA6EEF50E552E718E76E0C0EE7CFDBFF24
:10110000DF2A010ECCE3DB2ACAD70C0EDB50146EAB
:101110000D0EE15C02E2E16AE552E16E1450E55227
:06112000E7CFD9FF120029
:0A112600D9CFE6FFE1CFD9FF949C7A
:10113000949EFE0EDB50330EAF6EB06AAC94B89640
:10114000AC98AB8EAC90AC8AAB88E552E7CFD9FFB8
:101150001200D9CFE6FFE1CFD9FF9EA8FED7FE0E41
:10116000DB50AD6EE552E7CFD9FF1200AE50120052
:10117000D9CFE6FFE1CFD9FF020EE126DE6ADD6AB4
:10118000DE6ADD6ADECF14F0DDCF15F0D8901550A1
:1011900004E6400E145C000E15580EE2DECFE9FFA7
:1011A000DDCFEAFF800EE926000EEA22EF6ADF2A91
:1011B000010EE8E3DB2AE6D70001C16B0001C06B3A
:1011C000020EE15C02E2E16AE552E16EE552E7CF30
:1011D000D9FF1200D9CFE6FFE1CFD9FF020EE126F9
:1011E000010EDE6EDD6ADECF14F0DDCF15F0D89093
:1011F000155004E6400E145C000E15582FE2DECFA9
:1012000016F0DDCF17F0FD0EDBCFE9FFFE0EDBCFD2
:10121000EAFFEFCF18F0196A18BE196819501718AD
:10122000E8AE02D0173404D01650185C1750195885
:1012300015E3FD0EDBCF14F0FE0EDBCF15F0DE5014
:101240001424E96EDD501520EA6EEF50E66E81DF62
:10125000E552DF2A010EC7E3DB2AC5D7020EE15CA7
:1012600002E2E16AE552E16EE552E7CFD9FF1200F2
:10127000D9CFE6FFE1CFD9FF020EE126DE6ADD6AB3
:10128000DECF14F0DDCF15F0166A15BE1668D95002
:10129000FC0FE96EFF0EDA20EA6EEE501424F36EB6
:1012A000EE501520F46EEE501620F86EF4CFF7FFD6
:1012B000F3CFF6FF0800F55024E09EA8FED7DFCF5D
:1012C00014F0DF2A010EDBCF15F001E3DB2A166AEA
:1012D00015BE1668D950FC0FE96EFF0EDA20EA6ED3
:1012E000EE501424F36EEE501520F46EEE501620DE
:1012F000F86EF4CFF7FFF3CFF6FF0800F550AD6EB0
:10130000BFD7020EE15C02E2E16AE552E16EE5520E
:10131000E7CFD9FF1200D9CFE6FFE1CFD9FF020E08
:10132000E126010EDE6EDD6ADE6EDD6ADECF14F0D0
:10133000DDCF15F0FD0EDBCFE9FFFE0EDBCFEAFFC0
:10134000EFCF16F0176A16BE176817501518E8AEDB
:1013500002D0153404D01450165C1550175823E3EE
:10136000DECFE9FFDDCFEAFFE906000EEA5A800E84
:10137000E926000EEA22EFCF14F0FD0EDBCF15F0C8
:10138000FE0EDBCF16F0DE501524E96EDD50162080
:10139000EA6EEF50145C05E1DF2A010EC7E3DB2A99
:1013A000C5D7000E01D0FF0E146E020EE15C02E202
:1013B000E16AE552E16E1450E552E7CFD9FF120021
:1013C000898A000000000000000000000000899AE7
:1013D0001200F26A070EB46E060EC16E92949296D7
:1013E000929AF00E946E899489966E0EE66EE66A75
:1013F000AEEC04F0E552E552030E826EE1DF0A0E18
:10140000E66EE66AAEEC04F0E552E552030E826E3B
:10141000D7DF0A0EE66EE66AAEEC04F0E552E5525E
:10142000030E826ECDDF0A0EE66EE66AAEEC04F0C5
:10143000E552E552020E826EC3DF0C0EE66E29D82D
:10144000E552010EE66E25D8E5521200D9CFE6FF2F
:10145000E1CFD9FF020EE66EE66AAEEC04F0E5528B
:10146000E552FE0EDB50F00B0101E8380F0B126F56
:10147000826E89968984A4DFFE0EDB500F0B01017A
:10148000126F826E899689849BDFE552E7CFD9FF80
:101490001200D9CFE6FFE1CFD9FF020EE66EE66A71
:1014A000AEEC04F0E552E552FE0EDB50F00B01010C
:1014B000E8380F0B126F826E8996899481DFFE0ED9
:1014C000DB500F0B0101126F826E8996899478DFD1
:1014D000E552E7CFD9FF1200D9CFE6FFE1CFD9FF20
:1014E0000101106B116BFD0EDB501025E96EFE0E35
:1014F000DB5011210F01EA6EEF5015E0FD0EDB50BD
:10150000010110250F01E96EFE0EDB5001011121D2
:101510000F01EA6EEF50E66E99DFE5520101102BE4
:10152000000E1123E0D7E552E7CFD9FF1200D9CF43
:10153000E6FFE1CFD9FFE652DF6AFE0EDB5001087D
:1015400020E3FD0EDB500F081CE3020EE66EA1DF68
:10155000E552FE0EDB5004E0C00EE66E9ADFE55267
:10156000DF6AFD0EDB50DF5C06E2140EE66E91DFF3
:10157000E552DF2AF6D7FE0EDBCFEDF0FD0EDBCF16
:10158000EEF0E552E552E7CFD9FF1200D9CFE6FFE2
:10159000E1CFD9FFE652DF6AFE0EDB5001084CE3D3
:1015A000FD0EDB500F0848E3020EE66E72DFE552D7
:1015B000FE0EDB5004E0C00EE66E6BDFE552DF6A24
:1015C000FD0EDB50DF5C06E2140EE66E62DFE552D4
:1015D000DF2AF6D7DF6AFD0EDBCFE6FF0F0EE552FE
:1015E000D880E754DF5C20E2DF50E76EFB0EDBCFF4
:1015F000E9FFFC0EDBCFEAFFE750E926000EEA2206
:10160000EF5012E0DF50E76EFB0EDBCFE9FFFC0E80
:10161000DBCFEAFFE750E926000EEA22EF50E66E44
:1016200015DFE552DF2AD7D70F0EE66EFE0EDBCFB1
:10163000E6FF7DDFE552E552E552E552E7CFD9FFFF
:02164000120096
:0E164200C19AC198C08EC08AC088C086C0847C
:10165000C082C0901200D9CFE6FFE1CFD9FF080EBB
:10166000E126DE6ADD6A020EDB6A030EDB6A040E27
:10167000DB6A050EDB6A060EDB6A070EDB6AFE0E0E
:10168000DBCF14F0143401E38CD0FE0EDBCF15F069
:10169000040EE76E1518E8AE02D0153403D0E750FB
:1016A000D880155401E27DD0FE0EDBCF16F0080E77
:1016B000E76E1618E8AE02D0E73402D0E750165CA9
:1016C00070E3FE0EDBCF17F00C0EE76E1718E8AED6
:1016D00002D0173403D0E750D880175462E3FE0ECF
:1016E000DB50080B146E080E156E0E6E14C009F058
:1016F0001BEC0DF00950E8B0C28AE8A0C29AFE0EB9
:10170000DB50040B146E040E156E0E6E14C009F03F
:101710001BEC0DF00950E8B0C288E8A0C298FE0E9C
:10172000DB50020B146E020E156E0E6E14C009F023
:101730001BEC0DF00950E8B0C286E8A0C296FE0E80
:10174000DB50010BE8B0C284E8A0C294FE0EDB506F
:101750000C0A24E0070A20E0010A1CE0030A18E052
:10176000010A14E00C0A10E0070A0CE0010A08E084
:10177000030A04E0010A18E10E0E11D00D0E0FD07D
:101780000C0E0DD00B0E0BD00A0E09D0060E07D092
:10179000050E05D0040E03D0030E01D0020EC16E5B
:1017A00003D0F36AF46A45D0C280C282C2B2FED7C7
:1017B000C350E66ED950040FE96EDACFEAFFE55266
:1017C000E750EE6EED6AC450DE6EDD6AC290DECF89
:1017D00014F0DDCF15F014C015F0146A020E14C019
:1017E000DBFF030E15C0DBFF020EDBCF14F0030E90
:1017F000DBCF15F0D950040FE96EDACFEAFF1450B1
:10180000EE121550ED12040EDBCF08F0050EDBCF03
:1018100009F0060E08C0DBFF070E09C0DBFF060E4D
:10182000DBCF14F0070EDBCF15F014C0F3FF15C0AB
:10183000F4FF080EE15C02E2E16AE552E16EE55276
:06184000E7CFD9FF120002
:0A18460001010F6B0FC10EF10FC17D
:101850000DF10FC10CF10FC10BF10FC10AF1929202
:1018600093989498949A1200070E8A129312939068
:10187000020EE66EE66AAEEC04F0E552E5528150E7
:10188000020B06E001010A5103E1010E0A6F010C8F
:101890008150020B05E101010A0502E10A6B020C0D
:1018A0008150040B06E001010F5103E1010E0F6F9F
:1018B0000B0C8150040B05E101010F0502E10F6BD8
:1018C0000C0C070E8A1293129392020EE66EE66AD1
:1018D000AEEC04F0E552E5528150010B06E0010147
:1018E0000D5103E1010E0D6F070C8150010B05E155
:1018F00001010D0502E10D6B080C8150040B06E09F
:1019000001010B5103E1010E0B6F030C8150040B1D
:1019100005E101010B0502E10B6B040C070E8A12B5
:10192000030E93129394020EE66EE66AAEEC04F098
:10193000E552E5528150010B06E001010C5103E133
:10194000010E0C6F050C8150010B05E101010C0526
:1019500002E10C6B060C8150020B06E001010E51F6
:1019600003E1010E0E6F090C8150020B05E101012C
:101970000E0502E10E6B0A0C000CD9CFE6FFE1CF99
:10198000D9FFFE0EDB5002E08A8801D08A98E5522A
:10199000E7CFD9FF1200D9CFE6FFE1CFD9FFFE0E86
:1019A000DB5002E0898201D08992E552E7CFD9FF6E
:1019B0001200D9CFE6FFE1CFD9FFE652960EDF6ED7
:1019C000DF0613E08B9A8B887D0EE66EE66ADBEC11
:1019D00004F0E552E5528B988B8A7D0EE66EE66A3E
:1019E000DBEC04F0E552E552EBD7E552E552E7CFE8
:1019F000D9FF1200D9CFE6FFE1CFD9FFE6524B0E57
:101A0000DF6EDF0613E08B9A8B88FA0EE66EE66ACD
:101A1000DBEC04F0E552E5528B988B8AFA0EE66E09
:101A2000E66ADBEC04F0E552E552EBD7E552E5520D
:061A3000E7CFD9FF120010
:0A1A3600006A0EAE21EF0DF00E6CF9
:101A4000001E09AE26EF0DF0096C001E51EC0EF0E1
:101A500009BE30EF0DF000AE000C096C056C000CF7
:101A600000BE2DEF0DF00188FF0C006A0EAE40EFB6
:101A70000DF00C6C0D1E0E1EE86A0D220E22001ECB
:101A800009AE4AEF0DF0076C081E091EE86A08222D
:101A90000922001EF0EC0DF009BE5DEF0DF000AE66
:101AA000000C076C081E091EE86A08220922036C54
:101AB000041E051E04220522000C00BE51EF0DF08D
:101AC0000188FF0C08C012F008500D02F4CF07F097
:101AD000F3CF06F009500E02F4CF09F0F3CF08F06F
:101AE0000D02F3500726F4500822E86A092212502A
:101AF0000E02F3500726F4500822E86A0922000C6F
:101B00000E0EF66E000EF76E000EF86E0101090063
:101B1000F550056F0900F550066F03E1056701D028
:101B20003DD00900F550006F0900F550016F090024
:101B3000F550026F09000900F550E96E0900F550F3
:101B4000EA6E090009000900F550036F0900F5501D
:101B5000046F09000900F6CF07F1F7CF08F1F8CFBD
:101B600009F100C1F6FF01C1F7FF02C1F8FF010151
:101B7000035302E1045307E00900F550EE6E03073A
:101B8000F8E20407F9D707C1F6FF08C1F7FF09C15A
:0E1B9000F8FF01010507000E065BBFD712002B
:021B9E00D59CD4
:101BA000D59AD596D584D592D580D58EF2940B0E44
:101BB000D76EDC0ED66EF29AF1841200F2A406D033
:101BC000F2940B0ED76EDC0ED66EFF0C000CCD8E91
:101BD000CD92CD8ACD88CD809E909D909F80120021
:101BE000056A046A036A180EE76ED890073608364D
:101BF00009360336043605360C50035C0D50045884
:101C00000E50055807E30C50035E0D50045A0E5059
:0A1C1000055A072AE72EEAD7120052
:061C1A00056A046A100EC9
:101C2000E76ED89008360936043605360D50045C48
:101C30000E50055805E30D50045E0E50055A082A53
:061C4000E72EF0D71200B0
:0A1C4600FF0EE3501C6E480E01D0A3
:101C50004C0EE76EE72EFED7E76AE72EFED71C2E66
:061C6000F7D7000012009E
:0A1C6600000EF36E00EE00F0060E13
:101C700001D81200EA6002D0EE6AFCD7F350E960A6
:061C80001200EE6AFCD721
:0A1C860015EE00F025EE00F0F86AFC
:101C9000019C80EC0DF003EC00F07AEC00F0FBD737
:021CA000120030
:0E1CA200056A080EE76ED890093605360E501A
:0E1CB000055C02E3056E092AE72EF7D7120045
:021CBE00F26AC8
:101CC0009E6A9D6AA16AA06A9F6AA26AD09EF28EED
:081CD000F28C9D8A9F8A12002C
:081CD8000000204F6E2054694A
:101CE0006D653A2030303A3030004F6666205469D6
:101CF0006D653A2030303A3030003C00100E3C0028
:051D0000100E020000BE
:0B1D05000000207777772E6F6C696D6F
:081D100065782E636F6D200061
:020000040030CA
:0100010002FC
:010003001EDE
:010005008179
:010006008178
:01000900C036
:01000B00E014
:0200000400F00A
:070000000000000000004FAA
:00000001FF
